{
  "contractName": "TokenVesting",
  "abi": [
    {
      "inputs": [
        {
          "internalType": "address",
          "name": "tcr",
          "type": "address"
        }
      ],
      "stateMutability": "nonpayable",
      "type": "constructor"
    },
    {
      "anonymous": false,
      "inputs": [
        {
          "indexed": false,
          "internalType": "uint256",
          "name": "amount",
          "type": "uint256"
        },
        {
          "indexed": false,
          "internalType": "address",
          "name": "claimer",
          "type": "address"
        }
      ],
      "name": "Claim",
      "type": "event"
    },
    {
      "anonymous": false,
      "inputs": [
        {
          "indexed": true,
          "internalType": "address",
          "name": "previousOwner",
          "type": "address"
        },
        {
          "indexed": true,
          "internalType": "address",
          "name": "newOwner",
          "type": "address"
        }
      ],
      "name": "OwnershipTransferred",
      "type": "event"
    },
    {
      "inputs": [
        {
          "internalType": "address",
          "name": "",
          "type": "address"
        }
      ],
      "name": "numberOfSchedules",
      "outputs": [
        {
          "internalType": "uint256",
          "name": "",
          "type": "uint256"
        }
      ],
      "stateMutability": "view",
      "type": "function",
      "constant": true
    },
    {
      "inputs": [],
      "name": "owner",
      "outputs": [
        {
          "internalType": "address",
          "name": "",
          "type": "address"
        }
      ],
      "stateMutability": "view",
      "type": "function",
      "constant": true
    },
    {
      "inputs": [],
      "name": "renounceOwnership",
      "outputs": [],
      "stateMutability": "nonpayable",
      "type": "function"
    },
    {
      "inputs": [
        {
          "internalType": "address",
          "name": "",
          "type": "address"
        },
        {
          "internalType": "uint256",
          "name": "",
          "type": "uint256"
        }
      ],
      "name": "schedules",
      "outputs": [
        {
          "internalType": "uint256",
          "name": "totalAmount",
          "type": "uint256"
        },
        {
          "internalType": "uint256",
          "name": "claimedAmount",
          "type": "uint256"
        },
        {
          "internalType": "uint256",
          "name": "startTime",
          "type": "uint256"
        },
        {
          "internalType": "uint256",
          "name": "cliffTime",
          "type": "uint256"
        },
        {
          "internalType": "uint256",
          "name": "endTime",
          "type": "uint256"
        },
        {
          "internalType": "bool",
          "name": "isFixed",
          "type": "bool"
        },
        {
          "internalType": "bool",
          "name": "cliffClaimed",
          "type": "bool"
        }
      ],
      "stateMutability": "view",
      "type": "function",
      "constant": true
    },
    {
      "inputs": [
        {
          "internalType": "address",
          "name": "newOwner",
          "type": "address"
        }
      ],
      "name": "transferOwnership",
      "outputs": [],
      "stateMutability": "nonpayable",
      "type": "function"
    },
    {
      "inputs": [],
      "name": "valueLocked",
      "outputs": [
        {
          "internalType": "uint256",
          "name": "",
          "type": "uint256"
        }
      ],
      "stateMutability": "view",
      "type": "function",
      "constant": true
    },
    {
      "inputs": [
        {
          "internalType": "address",
          "name": "account",
          "type": "address"
        },
        {
          "internalType": "uint256",
          "name": "amount",
          "type": "uint256"
        },
        {
          "internalType": "bool",
          "name": "isFixed",
          "type": "bool"
        },
        {
          "internalType": "uint256",
          "name": "cliffWeeks",
          "type": "uint256"
        },
        {
          "internalType": "uint256",
          "name": "vestingWeeks",
          "type": "uint256"
        }
      ],
      "name": "setVestingSchedule",
      "outputs": [],
      "stateMutability": "nonpayable",
      "type": "function"
    },
    {
      "inputs": [
        {
          "internalType": "uint256",
          "name": "scheduleNumber",
          "type": "uint256"
        }
      ],
      "name": "claim",
      "outputs": [],
      "stateMutability": "nonpayable",
      "type": "function"
    },
    {
      "inputs": [
        {
          "internalType": "address",
          "name": "account",
          "type": "address"
        },
        {
          "internalType": "uint256",
          "name": "scheduleId",
          "type": "uint256"
        }
      ],
      "name": "cancelVesting",
      "outputs": [],
      "stateMutability": "nonpayable",
      "type": "function"
    },
    {
      "inputs": [
        {
          "internalType": "address",
          "name": "account",
          "type": "address"
        },
        {
          "internalType": "uint256",
          "name": "scheduleId",
          "type": "uint256"
        }
      ],
      "name": "getVesting",
      "outputs": [
        {
          "internalType": "uint256",
          "name": "",
          "type": "uint256"
        },
        {
          "internalType": "uint256",
          "name": "",
          "type": "uint256"
        }
      ],
      "stateMutability": "view",
      "type": "function",
      "constant": true
    },
    {
      "inputs": [
        {
          "internalType": "uint256",
          "name": "amount",
          "type": "uint256"
        },
        {
          "internalType": "uint256",
          "name": "currentTime",
          "type": "uint256"
        },
        {
          "internalType": "uint256",
          "name": "startTime",
          "type": "uint256"
        },
        {
          "internalType": "uint256",
          "name": "endTime",
          "type": "uint256"
        }
      ],
      "name": "calcDistribution",
      "outputs": [
        {
          "internalType": "uint256",
          "name": "",
          "type": "uint256"
        }
      ],
      "stateMutability": "pure",
      "type": "function",
      "constant": true
    },
    {
      "inputs": [
        {
          "internalType": "uint256",
          "name": "amount",
          "type": "uint256"
        }
      ],
      "name": "withdraw",
      "outputs": [],
      "stateMutability": "nonpayable",
      "type": "function"
    }
  ],
  "bytecode": "0x608060405234801561001057600080fd5b50604051611d58380380611d588339818101604052602081101561003357600080fd5b8101908080519060200190929190505050600061005461013960201b60201c565b9050806000806101000a81548173ffffffffffffffffffffffffffffffffffffffff021916908373ffffffffffffffffffffffffffffffffffffffff1602179055508073ffffffffffffffffffffffffffffffffffffffff16600073ffffffffffffffffffffffffffffffffffffffff167f8be0079c531659141344cd1fd0a4f28419497f9722a3daafe3b4186f6b6457e060405160405180910390a35080600460006101000a81548173ffffffffffffffffffffffffffffffffffffffff021916908373ffffffffffffffffffffffffffffffffffffffff16021790555050610141565b600033905090565b611c08806101506000396000f3fe608060405234801561001057600080fd5b50600436106100b45760003560e01c80638da5cb5b116100715780638da5cb5b146102865780639c4e64e0146102ba578063de0106401461031a578063df681c1414610368578063f2fde38b146103c0578063f9902be414610404576100b4565b80632e1a7d4d146100b9578063379607f5146100e75780633e05a36d14610115578063715018a61461017e5780637825e7b514610188578063854e9682146101f6575b600080fd5b6100e5600480360360208110156100cf57600080fd5b8101908080359060200190929190505050610422565b005b610113600480360360208110156100fd57600080fd5b8101908080359060200190929190505050610658565b005b6101616004803603604081101561012b57600080fd5b81019080803573ffffffffffffffffffffffffffffffffffffffff169060200190929190803590602001909291905050506108a1565b604051808381526020018281526020019250505060405180910390f35b610186610987565b005b6101f4600480360360a081101561019e57600080fd5b81019080803573ffffffffffffffffffffffffffffffffffffffff169060200190929190803590602001909291908035151590602001909291908035906020019092919080359060200190929190505050610af4565b005b6102426004803603604081101561020c57600080fd5b81019080803573ffffffffffffffffffffffffffffffffffffffff16906020019092919080359060200190929190505050610f06565b604051808881526020018781526020018681526020018581526020018481526020018315158152602001821515815260200197505050505050505060405180910390f35b61028e610f6f565b604051808273ffffffffffffffffffffffffffffffffffffffff16815260200191505060405180910390f35b610304600480360360808110156102d057600080fd5b8101908080359060200190929190803590602001909291908035906020019092919080359060200190929190505050610f98565b6040518082815260200191505060405180910390f35b6103666004803603604081101561033057600080fd5b81019080803573ffffffffffffffffffffffffffffffffffffffff16906020019092919080359060200190929190505050610fed565b005b6103aa6004803603602081101561037e57600080fd5b81019080803573ffffffffffffffffffffffffffffffffffffffff16906020019092919050505061123c565b6040518082815260200191505060405180910390f35b610402600480360360208110156103d657600080fd5b81019080803573ffffffffffffffffffffffffffffffffffffffff169060200190929190505050611254565b005b61040c611446565b6040518082815260200191505060405180910390f35b61042a61144c565b73ffffffffffffffffffffffffffffffffffffffff16610448610f6f565b73ffffffffffffffffffffffffffffffffffffffff16146104d1576040517f08c379a00000000000000000000000000000000000000000000000000000000081526004018080602001828103825260208152602001807f4f776e61626c653a2063616c6c6572206973206e6f7420746865206f776e657281525060200191505060405180910390fd5b806105aa600354600460009054906101000a900473ffffffffffffffffffffffffffffffffffffffff1673ffffffffffffffffffffffffffffffffffffffff166370a08231306040518263ffffffff1660e01b8152600401808273ffffffffffffffffffffffffffffffffffffffff16815260200191505060206040518083038186803b15801561056157600080fd5b505afa158015610575573d6000803e3d6000fd5b505050506040513d602081101561058b57600080fd5b810190808051906020019092919050505061145490919063ffffffff16565b1015610601576040517f08c379a0000000000000000000000000000000000000000000000000000000008152600401808060200182810382526021815260200180611b656021913960400191505060405180910390fd5b61065561060c610f6f565b82600460009054906101000a900473ffffffffffffffffffffffffffffffffffffffff1673ffffffffffffffffffffffffffffffffffffffff166114d79092919063ffffffff16565b50565b6000600160003373ffffffffffffffffffffffffffffffffffffffff1673ffffffffffffffffffffffffffffffffffffffff168152602001908152602001600020600083815260200190815260200160002090504281600301541115610726576040517f08c379a000000000000000000000000000000000000000000000000000000000815260040180806020018281038252601e8152602001807f56657374696e673a20636c69666654696d65206e6f742072656163686564000081525060200191505060405180910390fd5b60008160000154116107a0576040517f08c379a000000000000000000000000000000000000000000000000000000000815260040180806020018281038252601c8152602001807f56657374696e673a204e6f20636c61696d61626c6520746f6b656e730000000081525060200191505060405180910390fd5b60006107ba82600001544284600201548560040154610f98565b9050816000015481116107cd57806107d3565b81600001545b905060006107ee83600101548361145490919063ffffffff16565b90508183600101819055506108463382600460009054906101000a900473ffffffffffffffffffffffffffffffffffffffff1673ffffffffffffffffffffffffffffffffffffffff166114d79092919063ffffffff16565b7f35538759d80c1fd7bb450a0d05601db5a99fa8b5d073a07c847a9fd61029b1078233604051808381526020018273ffffffffffffffffffffffffffffffffffffffff1681526020019250505060405180910390a150505050565b6000806108ac611ab6565b600160008673ffffffffffffffffffffffffffffffffffffffff1673ffffffffffffffffffffffffffffffffffffffff16815260200190815260200160002060008581526020019081526020016000206040518060e001604052908160008201548152602001600182015481526020016002820154815260200160038201548152602001600482015481526020016005820160009054906101000a900460ff161515151581526020016005820160019054906101000a900460ff16151515158152505090508060000151816020015192509250509250929050565b61098f61144c565b73ffffffffffffffffffffffffffffffffffffffff166109ad610f6f565b73ffffffffffffffffffffffffffffffffffffffff1614610a36576040517f08c379a00000000000000000000000000000000000000000000000000000000081526004018080602001828103825260208152602001807f4f776e61626c653a2063616c6c6572206973206e6f7420746865206f776e657281525060200191505060405180910390fd5b600073ffffffffffffffffffffffffffffffffffffffff1660008054906101000a900473ffffffffffffffffffffffffffffffffffffffff1673ffffffffffffffffffffffffffffffffffffffff167f8be0079c531659141344cd1fd0a4f28419497f9722a3daafe3b4186f6b6457e060405160405180910390a360008060006101000a81548173ffffffffffffffffffffffffffffffffffffffff021916908373ffffffffffffffffffffffffffffffffffffffff160217905550565b610afc61144c565b73ffffffffffffffffffffffffffffffffffffffff16610b1a610f6f565b73ffffffffffffffffffffffffffffffffffffffff1614610ba3576040517f08c379a00000000000000000000000000000000000000000000000000000000081526004018080602001828103825260208152602001807f4f776e61626c653a2063616c6c6572206973206e6f7420746865206f776e657281525060200191505060405180910390fd5b83610c7c600354600460009054906101000a900473ffffffffffffffffffffffffffffffffffffffff1673ffffffffffffffffffffffffffffffffffffffff166370a08231306040518263ffffffff1660e01b8152600401808273ffffffffffffffffffffffffffffffffffffffff16815260200191505060206040518083038186803b158015610c3357600080fd5b505afa158015610c47573d6000803e3d6000fd5b505050506040513d6020811015610c5d57600080fd5b810190808051906020019092919050505061145490919063ffffffff16565b1015610cd3576040517f08c379a0000000000000000000000000000000000000000000000000000000008152600401808060200182810382526021815260200180611b656021913960400191505060405180910390fd5b81811015610d2c576040517f08c379a0000000000000000000000000000000000000000000000000000000008152600401808060200182810382526023815260200180611b866023913960400191505060405180910390fd5b6000600260008773ffffffffffffffffffffffffffffffffffffffff1673ffffffffffffffffffffffffffffffffffffffff1681526020019081526020016000205490506040518060e0016040528086815260200160008152602001428152602001610da662093a8086024261157990919063ffffffff16565b8152602001610dc362093a8085024261157990919063ffffffff16565b8152602001851515815260200160001515815250600160008873ffffffffffffffffffffffffffffffffffffffff1673ffffffffffffffffffffffffffffffffffffffff1681526020019081526020016000206000838152602001908152602001600020600082015181600001556020820151816001015560408201518160020155606082015181600301556080820151816004015560a08201518160050160006101000a81548160ff02191690831515021790555060c08201518160050160016101000a81548160ff02191690831515021790555090505060018101600260008873ffffffffffffffffffffffffffffffffffffffff1673ffffffffffffffffffffffffffffffffffffffff16815260200190815260200160002081905550610ef88560035461157990919063ffffffff16565b600381905550505050505050565b6001602052816000526040600020602052806000526040600020600091509150508060000154908060010154908060020154908060030154908060040154908060050160009054906101000a900460ff16908060050160019054906101000a900460ff16905087565b60008060009054906101000a900473ffffffffffffffffffffffffffffffffffffffff16905090565b6000610fe3610fb0848461145490919063ffffffff16565b610fd5610fc6868861145490919063ffffffff16565b8861160190919063ffffffff16565b61168790919063ffffffff16565b9050949350505050565b610ff561144c565b73ffffffffffffffffffffffffffffffffffffffff16611013610f6f565b73ffffffffffffffffffffffffffffffffffffffff161461109c576040517f08c379a00000000000000000000000000000000000000000000000000000000081526004018080602001828103825260208152602001807f4f776e61626c653a2063616c6c6572206973206e6f7420746865206f776e657281525060200191505060405180910390fd5b6000600160008473ffffffffffffffffffffffffffffffffffffffff1673ffffffffffffffffffffffffffffffffffffffff16815260200190815260200160002060008381526020019081526020016000209050806000015481600101541061116d576040517f08c379a000000000000000000000000000000000000000000000000000000000815260040180806020018281038252601d8152602001807f56657374696e673a20546f6b656e732066756c6c7920636c61696d656400000081525060200191505060405180910390fd5b8060050160009054906101000a900460ff16156111f2576040517f08c379a00000000000000000000000000000000000000000000000000000000081526004018080602001828103825260198152602001807f56657374696e673a204163636f756e742069732066697865640000000000000081525060200191505060405180910390fd5b600061120f8260010154836000015461145490919063ffffffff16565b9050600082600001819055506112308160035461145490919063ffffffff16565b60038190555050505050565b60026020528060005260406000206000915090505481565b61125c61144c565b73ffffffffffffffffffffffffffffffffffffffff1661127a610f6f565b73ffffffffffffffffffffffffffffffffffffffff1614611303576040517f08c379a00000000000000000000000000000000000000000000000000000000081526004018080602001828103825260208152602001807f4f776e61626c653a2063616c6c6572206973206e6f7420746865206f776e657281525060200191505060405180910390fd5b600073ffffffffffffffffffffffffffffffffffffffff168173ffffffffffffffffffffffffffffffffffffffff161415611389576040517f08c379a0000000000000000000000000000000000000000000000000000000008152600401808060200182810382526026815260200180611af86026913960400191505060405180910390fd5b8073ffffffffffffffffffffffffffffffffffffffff1660008054906101000a900473ffffffffffffffffffffffffffffffffffffffff1673ffffffffffffffffffffffffffffffffffffffff167f8be0079c531659141344cd1fd0a4f28419497f9722a3daafe3b4186f6b6457e060405160405180910390a3806000806101000a81548173ffffffffffffffffffffffffffffffffffffffff021916908373ffffffffffffffffffffffffffffffffffffffff16021790555050565b60035481565b600033905090565b6000828211156114cc576040517f08c379a000000000000000000000000000000000000000000000000000000000815260040180806020018281038252601e8152602001807f536166654d6174683a207375627472616374696f6e206f766572666c6f77000081525060200191505060405180910390fd5b818303905092915050565b6115748363a9059cbb60e01b8484604051602401808373ffffffffffffffffffffffffffffffffffffffff16815260200182815260200192505050604051602081830303815290604052907bffffffffffffffffffffffffffffffffffffffffffffffffffffffff19166020820180517bffffffffffffffffffffffffffffffffffffffffffffffffffffffff8381831617835250505050611710565b505050565b6000808284019050838110156115f7576040517f08c379a000000000000000000000000000000000000000000000000000000000815260040180806020018281038252601b8152602001807f536166654d6174683a206164646974696f6e206f766572666c6f77000000000081525060200191505060405180910390fd5b8091505092915050565b6000808314156116145760009050611681565b600082840290508284828161162557fe5b041461167c576040517f08c379a0000000000000000000000000000000000000000000000000000000008152600401808060200182810382526021815260200180611b446021913960400191505060405180910390fd5b809150505b92915050565b60008082116116fe576040517f08c379a000000000000000000000000000000000000000000000000000000000815260040180806020018281038252601a8152602001807f536166654d6174683a206469766973696f6e206279207a65726f00000000000081525060200191505060405180910390fd5b81838161170757fe5b04905092915050565b6060611772826040518060400160405280602081526020017f5361666545524332303a206c6f772d6c6576656c2063616c6c206661696c65648152508573ffffffffffffffffffffffffffffffffffffffff166117ff9092919063ffffffff16565b90506000815111156117fa5780806020019051602081101561179357600080fd5b81019080805190602001909291905050506117f9576040517f08c379a000000000000000000000000000000000000000000000000000000000815260040180806020018281038252602a815260200180611ba9602a913960400191505060405180910390fd5b5b505050565b606061180e8484600085611817565b90509392505050565b6060823073ffffffffffffffffffffffffffffffffffffffff16311015611889576040517f08c379a0000000000000000000000000000000000000000000000000000000008152600401808060200182810382526026815260200180611b1e6026913960400191505060405180910390fd5b611892856119d7565b611904576040517f08c379a000000000000000000000000000000000000000000000000000000000815260040180806020018281038252601d8152602001807f416464726573733a2063616c6c20746f206e6f6e2d636f6e747261637400000081525060200191505060405180910390fd5b600060608673ffffffffffffffffffffffffffffffffffffffff1685876040518082805190602001908083835b602083106119545780518252602082019150602081019050602083039250611931565b6001836020036101000a03801982511681845116808217855250505050505090500191505060006040518083038185875af1925050503d80600081146119b6576040519150601f19603f3d011682016040523d82523d6000602084013e6119bb565b606091505b50915091506119cb8282866119ea565b92505050949350505050565b600080823b905060008111915050919050565b606083156119fa57829050611aaf565b600083511115611a0d5782518084602001fd5b816040517f08c379a00000000000000000000000000000000000000000000000000000000081526004018080602001828103825283818151815260200191508051906020019080838360005b83811015611a74578082015181840152602081019050611a59565b50505050905090810190601f168015611aa15780820380516001836020036101000a031916815260200191505b509250505060405180910390fd5b9392505050565b6040518060e001604052806000815260200160008152602001600081526020016000815260200160008152602001600015158152602001600015158152509056fe4f776e61626c653a206e6577206f776e657220697320746865207a65726f2061646472657373416464726573733a20696e73756666696369656e742062616c616e636520666f722063616c6c536166654d6174683a206d756c7469706c69636174696f6e206f766572666c6f7756657374696e673a20616d6f756e74203e20746f6b656e73206c6566746f76657256657374696e673a20636c6966662061667465722076657374696e6720706572696f645361666545524332303a204552433230206f7065726174696f6e20646964206e6f742073756363656564a264697066735822122093588c2a35e480fc06a26be49b99ba2c697a352318c4181d72cff14c12ec447664736f6c634300060c0033",
  "immutableReferences": {},
  "source": "// SPDX-License-Identifier: MIT\npragma solidity 0.6.12;\n\nimport \"@openzeppelin/contracts/token/ERC20/IERC20.sol\";\nimport \"@openzeppelin/contracts/token/ERC20/SafeERC20.sol\";\nimport \"@openzeppelin/contracts/math/SafeMath.sol\";\nimport \"@openzeppelin/contracts/math/SignedSafeMath.sol\";\nimport \"@openzeppelin/contracts/access/Ownable.sol\";\nimport \"./interfaces/IVesting.sol\";\n\ncontract TokenVesting is Ownable, IVesting {\n    using SafeERC20 for IERC20;\n    using SafeMath for uint256;\n\n    struct Schedule {\n        uint256 totalAmount;\n        uint256 claimedAmount;\n        uint256 startTime;\n        uint256 cliffTime;\n        uint256 endTime;\n        bool isFixed;\n        bool cliffClaimed;\n    }\n\n    mapping (address => mapping(uint => Schedule)) public schedules;\n    mapping (address => uint) public numberOfSchedules;\n\n    uint256 public valueLocked;\n    IERC20 private TCR;\n\n    event Claim(uint amount, address claimer);\n\n    constructor(address tcr) public {\n        TCR = IERC20(tcr);\n    }\n\n    /**\n    * @notice Sets up a vesting schedule for a set user.\n    * @dev adds a new Schedule to the schedules mapping.\n    * @param account the account that a vesting schedule is being set up for. Will be able to claim tokens after\n    *                the cliff period.\n    * @param amount the amount of tokens being vested for the user.\n    * @param isFixed a flag for if the vesting schedule is fixed or not. Fixed vesting schedules can't be cancelled.\n    * @param cliffWeeks the number of weeks that the cliff will be present at.\n    * @param vestingWeeks the number of weeks the tokens will vest over (linearly)\n    */\n    function setVestingSchedule(\n        address account,\n        uint256 amount,\n        bool isFixed,\n        uint256 cliffWeeks,\n        uint256 vestingWeeks\n    ) public override onlyOwner {\n        require(\n            TCR.balanceOf(address(this)).sub(valueLocked) >= amount,\n            \"Vesting: amount > tokens leftover\"\n        );\n        require(\n            vestingWeeks >= cliffWeeks,\n            \"Vesting: cliff after vesting period\"\n        );\n        uint256 currentNumSchedules = numberOfSchedules[account];\n        schedules[account][currentNumSchedules] = Schedule(\n            amount,\n            0,\n            block.timestamp,\n            block.timestamp.add(cliffWeeks * 1 weeks),\n            block.timestamp.add(vestingWeeks * 1 weeks),\n            isFixed,\n            false\n        );\n        numberOfSchedules[account] = currentNumSchedules + 1;\n        valueLocked = valueLocked.add(amount);\n    }\n\n    /**\n    * @notice allows users to claim vested tokens if the cliff time has passed.\n    */\n    function claim(uint256 scheduleNumber) public override {\n        Schedule storage schedule = schedules[msg.sender][scheduleNumber];\n        require(\n            schedule.cliffTime <= block.timestamp,\n            \"Vesting: cliffTime not reached\"\n        );\n        require(schedule.totalAmount > 0, \"Vesting: No claimable tokens\");\n\n        // Get the amount to be distributed\n        uint amount = calcDistribution(schedule.totalAmount, block.timestamp, schedule.startTime, schedule.endTime);\n        \n        // Cap the amount at the total amount\n        amount = amount > schedule.totalAmount ? schedule.totalAmount : amount;\n        uint amountToTransfer = amount.sub(schedule.claimedAmount);\n        schedule.claimedAmount = amount; // set new claimed amount based off the curve\n        TCR.safeTransfer(msg.sender, amountToTransfer);\n        emit Claim(amount, msg.sender);\n    }\n\n    /**\n    * @notice Allows a vesting schedule to be cancelled.\n    * @dev Any outstanding tokens are returned to the system.\n    * @param account the account of the user whos vesting schedule is being cancelled.\n    */\n    function cancelVesting(address account, uint256 scheduleId) public override onlyOwner {\n        Schedule storage schedule = schedules[account][scheduleId];\n        require(schedule.claimedAmount < schedule.totalAmount, \"Vesting: Tokens fully claimed\");\n        require(!schedule.isFixed, \"Vesting: Account is fixed\");\n        uint256 outstandingAmount = schedule.totalAmount.sub(schedule.claimedAmount);\n        schedule.totalAmount = 0;\n        valueLocked = valueLocked.sub(outstandingAmount);\n    }\n\n    /**\n    * @notice returns the total amount and total claimed amount of a users vesting schedule.\n    * @param account the user to retrieve the vesting schedule for.\n    */\n    function getVesting(address account, uint256 scheduleId)\n        public\n        override\n        view\n        returns (uint256, uint256)\n    {\n        Schedule memory schedule = schedules[account][scheduleId];\n        return (schedule.totalAmount, schedule.claimedAmount);\n    }\n\n    /**\n    * @notice calculates the amount of tokens to distribute to an account at any instance in time, based off some\n    *         total claimable amount.\n    * @param amount the total outstanding amount to be claimed for this vesting schedule.\n    * @param currentTime the current timestamp.\n    * @param startTime the timestamp this vesting schedule started.\n    * @param endTime the timestamp this vesting schedule ends.\n    */\n    function calcDistribution(uint amount, uint currentTime, uint startTime, uint endTime) public override pure returns(uint256) {\n        return amount.mul(currentTime.sub(startTime)).div(endTime.sub(startTime));\n    }\n\n    /**\n    * @notice Withdraws TCR tokens from the contract.\n    * @dev blocks withdrawing locked tokens.\n    */\n    function withdraw(uint amount) public onlyOwner {\n        require(\n            TCR.balanceOf(address(this)).sub(valueLocked) >= amount,\n            \"Vesting: amount > tokens leftover\"\n        );\n        TCR.safeTransfer(owner(), amount);\n    }\n}\n",
  "sourcePath": "/Users/steven/WebstormProjects/tracer-dao/contracts/Vesting.sol",
  "compiler": {
    "name": "solc",
    "version": "0.6.12+commit.27d51765.Emscripten.clang"
  },
  "schemaVersion": "3.3.4",
  "updatedAt": "2021-04-01T03:36:12.261Z",
  "networkType": "ethereum",
  "devdoc": {
    "kind": "dev",
    "methods": {
      "calcDistribution(uint256,uint256,uint256,uint256)": {
        "params": {
          "amount": "the total outstanding amount to be claimed for this vesting schedule.",
          "currentTime": "the current timestamp.",
          "endTime": "the timestamp this vesting schedule ends.",
          "startTime": "the timestamp this vesting schedule started."
        }
      },
      "cancelVesting(address,uint256)": {
        "details": "Any outstanding tokens are returned to the system.",
        "params": {
          "account": "the account of the user whos vesting schedule is being cancelled."
        }
      },
      "getVesting(address,uint256)": {
        "params": {
          "account": "the user to retrieve the vesting schedule for."
        }
      },
      "owner()": {
        "details": "Returns the address of the current owner."
      },
      "renounceOwnership()": {
        "details": "Leaves the contract without owner. It will not be possible to call `onlyOwner` functions anymore. Can only be called by the current owner. NOTE: Renouncing ownership will leave the contract without an owner, thereby removing any functionality that is only available to the owner."
      },
      "setVestingSchedule(address,uint256,bool,uint256,uint256)": {
        "details": "adds a new Schedule to the schedules mapping.",
        "params": {
          "account": "the account that a vesting schedule is being set up for. Will be able to claim tokens after                the cliff period.",
          "amount": "the amount of tokens being vested for the user.",
          "cliffWeeks": "the number of weeks that the cliff will be present at.",
          "isFixed": "a flag for if the vesting schedule is fixed or not. Fixed vesting schedules can't be cancelled.",
          "vestingWeeks": "the number of weeks the tokens will vest over (linearly)"
        }
      },
      "transferOwnership(address)": {
        "details": "Transfers ownership of the contract to a new account (`newOwner`). Can only be called by the current owner."
      },
      "withdraw(uint256)": {
        "details": "blocks withdrawing locked tokens."
      }
    },
    "version": 1
  },
  "userdoc": {
    "kind": "user",
    "methods": {
      "calcDistribution(uint256,uint256,uint256,uint256)": {
        "notice": "calculates the amount of tokens to distribute to an account at any instance in time, based off some         total claimable amount."
      },
      "cancelVesting(address,uint256)": {
        "notice": "Allows a vesting schedule to be cancelled."
      },
      "claim(uint256)": {
        "notice": "allows users to claim vested tokens if the cliff time has passed."
      },
      "getVesting(address,uint256)": {
        "notice": "returns the total amount and total claimed amount of a users vesting schedule."
      },
      "setVestingSchedule(address,uint256,bool,uint256,uint256)": {
        "notice": "Sets up a vesting schedule for a set user."
      },
      "withdraw(uint256)": {
        "notice": "Withdraws TCR tokens from the contract."
      }
    },
    "version": 1
  }
}